{
  "_format": "hh-sol-artifact-1",
  "contractName": "LandRegistry",
  "sourceName": "contracts/LandRegistry.sol",
  "abi": [
    {
      "inputs": [],
      "stateMutability": "nonpayable",
      "type": "constructor"
    },
    {
      "anonymous": false,
      "inputs": [
        {
          "indexed": true,
          "internalType": "string",
          "name": "surveyNumber",
          "type": "string"
        },
        {
          "indexed": false,
          "internalType": "string",
          "name": "landHash",
          "type": "string"
        },
        {
          "indexed": false,
          "internalType": "uint256",
          "name": "timestamp",
          "type": "uint256"
        },
        {
          "indexed": true,
          "internalType": "address",
          "name": "registeredBy",
          "type": "address"
        }
      ],
      "name": "LandRegistered",
      "type": "event"
    },
    {
      "inputs": [
        {
          "internalType": "string",
          "name": "_surveyNumber",
          "type": "string"
        }
      ],
      "name": "getLand",
      "outputs": [
        {
          "internalType": "uint256",
          "name": "",
          "type": "uint256"
        },
        {
          "internalType": "string",
          "name": "",
          "type": "string"
        },
        {
          "internalType": "string",
          "name": "",
          "type": "string"
        },
        {
          "internalType": "address",
          "name": "",
          "type": "address"
        },
        {
          "internalType": "uint256",
          "name": "",
          "type": "uint256"
        }
      ],
      "stateMutability": "view",
      "type": "function"
    },
    {
      "inputs": [
        {
          "internalType": "string",
          "name": "",
          "type": "string"
        }
      ],
      "name": "lands",
      "outputs": [
        {
          "internalType": "uint256",
          "name": "id",
          "type": "uint256"
        },
        {
          "internalType": "string",
          "name": "surveyNumber",
          "type": "string"
        },
        {
          "internalType": "string",
          "name": "landHash",
          "type": "string"
        },
        {
          "internalType": "address",
          "name": "owner",
          "type": "address"
        },
        {
          "internalType": "uint256",
          "name": "timestamp",
          "type": "uint256"
        },
        {
          "internalType": "bool",
          "name": "isRegistered",
          "type": "bool"
        }
      ],
      "stateMutability": "view",
      "type": "function"
    },
    {
      "inputs": [
        {
          "internalType": "string",
          "name": "_surveyNumber",
          "type": "string"
        },
        {
          "internalType": "string",
          "name": "_landHash",
          "type": "string"
        }
      ],
      "name": "registerLand",
      "outputs": [],
      "stateMutability": "nonpayable",
      "type": "function"
    },
    {
      "inputs": [
        {
          "internalType": "uint256",
          "name": "",
          "type": "uint256"
        }
      ],
      "name": "surveyNumbers",
      "outputs": [
        {
          "internalType": "string",
          "name": "",
          "type": "string"
        }
      ],
      "stateMutability": "view",
      "type": "function"
    },
    {
      "inputs": [],
      "name": "totalLands",
      "outputs": [
        {
          "internalType": "uint256",
          "name": "",
          "type": "uint256"
        }
      ],
      "stateMutability": "view",
      "type": "function"
    }
  ],
  "bytecode": "0x608060405234801561001057600080fd5b506000600281905550611181806100286000396000f3fe608060405234801561001057600080fd5b50600436106100575760003560e01c80631d8de0631461005c578063246426811461007a5780635f8ca404146100965780636c844a7b146100c6578063b1c8ad0d146100fa575b600080fd5b61006461012f565b6040516100719190610819565b60405180910390f35b610094600480360381019061008f919061098e565b610135565b005b6100b060048036038101906100ab9190610a32565b610359565b6040516100bd9190610ade565b60405180910390f35b6100e060048036038101906100db9190610b00565b6103f9565b6040516100f1959493929190610b8a565b60405180910390f35b610114600480360381019061010f9190610b00565b610671565b60405161012696959493929190610c06565b60405180910390f35b60025481565b6000826040516101459190610cb1565b908152602001604051809103902060050160009054906101000a900460ff16156101a4576040517f08c379a000000000000000000000000000000000000000000000000000000000815260040161019b90610d3a565b60405180910390fd5b600260008154809291906101b790610d89565b91905055506040518060c0016040528060025481526020018381526020018281526020013373ffffffffffffffffffffffffffffffffffffffff168152602001428152602001600115158152506000836040516102149190610cb1565b90815260200160405180910390206000820151816000015560208201518160010190816102419190610fdd565b5060408201518160020190816102579190610fdd565b5060608201518160030160006101000a81548173ffffffffffffffffffffffffffffffffffffffff021916908373ffffffffffffffffffffffffffffffffffffffff1602179055506080820151816004015560a08201518160050160006101000a81548160ff0219169083151502179055509050508160016000600254815260200190815260200160002090816102ee9190610fdd565b503373ffffffffffffffffffffffffffffffffffffffff16826040516103149190610cb1565b60405180910390207f5b87c30da9114f745ab3985a0bec130d3b34bc8fd4cde5a2981f817272c57c22834260405161034d9291906110af565b60405180910390a35050565b6001602052806000526040600020600091509050805461037890610e00565b80601f01602080910402602001604051908101604052809291908181526020018280546103a490610e00565b80156103f15780601f106103c6576101008083540402835291602001916103f1565b820191906000526020600020905b8154815290600101906020018083116103d457829003601f168201915b505050505081565b60006060806000806000866040516104119190610cb1565b908152602001604051809103902060050160009054906101000a900460ff1661046f576040517f08c379a00000000000000000000000000000000000000000000000000000000081526004016104669061112b565b60405180910390fd5b600080876040516104809190610cb1565b90815260200160405180910390206040518060c0016040529081600082015481526020016001820180546104b390610e00565b80601f01602080910402602001604051908101604052809291908181526020018280546104df90610e00565b801561052c5780601f106105015761010080835404028352916020019161052c565b820191906000526020600020905b81548152906001019060200180831161050f57829003601f168201915b5050505050815260200160028201805461054590610e00565b80601f016020809104026020016040519081016040528092919081815260200182805461057190610e00565b80156105be5780601f10610593576101008083540402835291602001916105be565b820191906000526020600020905b8154815290600101906020018083116105a157829003601f168201915b505050505081526020016003820160009054906101000a900473ffffffffffffffffffffffffffffffffffffffff1673ffffffffffffffffffffffffffffffffffffffff1673ffffffffffffffffffffffffffffffffffffffff168152602001600482015481526020016005820160009054906101000a900460ff161515151581525050905080600001518160200151826040015183606001518460800151955095509550955095505091939590929450565b6000818051602081018201805184825260208301602085012081835280955050505050506000915090508060000154908060010180546106b090610e00565b80601f01602080910402602001604051908101604052809291908181526020018280546106dc90610e00565b80156107295780601f106106fe57610100808354040283529160200191610729565b820191906000526020600020905b81548152906001019060200180831161070c57829003601f168201915b50505050509080600201805461073e90610e00565b80601f016020809104026020016040519081016040528092919081815260200182805461076a90610e00565b80156107b75780601f1061078c576101008083540402835291602001916107b7565b820191906000526020600020905b81548152906001019060200180831161079a57829003601f168201915b5050505050908060030160009054906101000a900473ffffffffffffffffffffffffffffffffffffffff16908060040154908060050160009054906101000a900460ff16905086565b6000819050919050565b61081381610800565b82525050565b600060208201905061082e600083018461080a565b92915050565b6000604051905090565b600080fd5b600080fd5b600080fd5b600080fd5b6000601f19601f8301169050919050565b7f4e487b7100000000000000000000000000000000000000000000000000000000600052604160045260246000fd5b61089b82610852565b810181811067ffffffffffffffff821117156108ba576108b9610863565b5b80604052505050565b60006108cd610834565b90506108d98282610892565b919050565b600067ffffffffffffffff8211156108f9576108f8610863565b5b61090282610852565b9050602081019050919050565b82818337600083830152505050565b600061093161092c846108de565b6108c3565b90508281526020810184848401111561094d5761094c61084d565b5b61095884828561090f565b509392505050565b600082601f83011261097557610974610848565b5b813561098584826020860161091e565b91505092915050565b600080604083850312156109a5576109a461083e565b5b600083013567ffffffffffffffff8111156109c3576109c2610843565b5b6109cf85828601610960565b925050602083013567ffffffffffffffff8111156109f0576109ef610843565b5b6109fc85828601610960565b9150509250929050565b610a0f81610800565b8114610a1a57600080fd5b50565b600081359050610a2c81610a06565b92915050565b600060208284031215610a4857610a4761083e565b5b6000610a5684828501610a1d565b91505092915050565b600081519050919050565b600082825260208201905092915050565b60005b83811015610a99578082015181840152602081019050610a7e565b60008484015250505050565b6000610ab082610a5f565b610aba8185610a6a565b9350610aca818560208601610a7b565b610ad381610852565b840191505092915050565b60006020820190508181036000830152610af88184610aa5565b905092915050565b600060208284031215610b1657610b1561083e565b5b600082013567ffffffffffffffff811115610b3457610b33610843565b5b610b4084828501610960565b91505092915050565b600073ffffffffffffffffffffffffffffffffffffffff82169050919050565b6000610b7482610b49565b9050919050565b610b8481610b69565b82525050565b600060a082019050610b9f600083018861080a565b8181036020830152610bb18187610aa5565b90508181036040830152610bc58186610aa5565b9050610bd46060830185610b7b565b610be1608083018461080a565b9695505050505050565b60008115159050919050565b610c0081610beb565b82525050565b600060c082019050610c1b600083018961080a565b8181036020830152610c2d8188610aa5565b90508181036040830152610c418187610aa5565b9050610c506060830186610b7b565b610c5d608083018561080a565b610c6a60a0830184610bf7565b979650505050505050565b600081905092915050565b6000610c8b82610a5f565b610c958185610c75565b9350610ca5818560208601610a7b565b80840191505092915050565b6000610cbd8284610c80565b915081905092915050565b7f4c616e642077697468207468697320537572766579204e756d62657220616c7260008201527f6561647920726567697374657265640000000000000000000000000000000000602082015250565b6000610d24602f83610a6a565b9150610d2f82610cc8565b604082019050919050565b60006020820190508181036000830152610d5381610d17565b9050919050565b7f4e487b7100000000000000000000000000000000000000000000000000000000600052601160045260246000fd5b6000610d9482610800565b91507fffffffffffffffffffffffffffffffffffffffffffffffffffffffffffffffff8203610dc657610dc5610d5a565b5b600182019050919050565b7f4e487b7100000000000000000000000000000000000000000000000000000000600052602260045260246000fd5b60006002820490506001821680610e1857607f821691505b602082108103610e2b57610e2a610dd1565b5b50919050565b60008190508160005260206000209050919050565b60006020601f8301049050919050565b600082821b905092915050565b600060088302610e937fffffffffffffffffffffffffffffffffffffffffffffffffffffffffffffffff82610e56565b610e9d8683610e56565b95508019841693508086168417925050509392505050565b6000819050919050565b6000610eda610ed5610ed084610800565b610eb5565b610800565b9050919050565b6000819050919050565b610ef483610ebf565b610f08610f0082610ee1565b848454610e63565b825550505050565b600090565b610f1d610f10565b610f28818484610eeb565b505050565b5b81811015610f4c57610f41600082610f15565b600181019050610f2e565b5050565b601f821115610f9157610f6281610e31565b610f6b84610e46565b81016020851015610f7a578190505b610f8e610f8685610e46565b830182610f2d565b50505b505050565b600082821c905092915050565b6000610fb460001984600802610f96565b1980831691505092915050565b6000610fcd8383610fa3565b9150826002028217905092915050565b610fe682610a5f565b67ffffffffffffffff811115610fff57610ffe610863565b5b6110098254610e00565b611014828285610f50565b600060209050601f8311600181146110475760008415611035578287015190505b61103f8582610fc1565b8655506110a7565b601f19841661105586610e31565b60005b8281101561107d57848901518255600182019150602085019450602081019050611058565b8683101561109a5784890151611096601f891682610fa3565b8355505b6001600288020188555050505b505050505050565b600060408201905081810360008301526110c98185610aa5565b90506110d8602083018461080a565b9392505050565b7f4c616e64206e6f7420666f756e64000000000000000000000000000000000000600082015250565b6000611115600e83610a6a565b9150611120826110df565b602082019050919050565b6000602082019050818103600083015261114481611108565b905091905056fea2646970667358221220a2eba3827588a77b4aff0c6f38a759dda3849b3f3f73e7edcd2ee473b6897f7e64736f6c63430008130033",
  "linkReferences": {},
  "deployedLinkReferences": {}
}