{
  "_format": "hh-sol-artifact-1",
  "contractName": "LandRegistry",
  "sourceName": "contracts/LandRegistry.sol",
  "abi": [
    {
      "inputs": [],
      "stateMutability": "nonpayable",
      "type": "constructor"
    },
    {
      "anonymous": false,
      "inputs": [
        {
          "indexed": true,
          "internalType": "string",
          "name": "surveyNumber",
          "type": "string"
        },
        {
          "indexed": false,
          "internalType": "string",
          "name": "landHash",
          "type": "string"
        },
        {
          "indexed": false,
          "internalType": "uint256",
          "name": "timestamp",
          "type": "uint256"
        },
        {
          "indexed": true,
          "internalType": "address",
          "name": "registeredBy",
          "type": "address"
        }
      ],
      "name": "LandRegistered",
      "type": "event"
    },
    {
      "anonymous": false,
      "inputs": [
        {
          "indexed": true,
          "internalType": "string",
          "name": "surveyNumber",
          "type": "string"
        },
        {
          "indexed": false,
          "internalType": "string",
          "name": "newLandHash",
          "type": "string"
        },
        {
          "indexed": false,
          "internalType": "uint256",
          "name": "timestamp",
          "type": "uint256"
        },
        {
          "indexed": true,
          "internalType": "address",
          "name": "updatedBy",
          "type": "address"
        }
      ],
      "name": "LandTransferred",
      "type": "event"
    },
    {
      "inputs": [
        {
          "internalType": "string",
          "name": "_surveyNumber",
          "type": "string"
        }
      ],
      "name": "getLand",
      "outputs": [
        {
          "internalType": "uint256",
          "name": "",
          "type": "uint256"
        },
        {
          "internalType": "string",
          "name": "",
          "type": "string"
        },
        {
          "internalType": "string",
          "name": "",
          "type": "string"
        },
        {
          "internalType": "address",
          "name": "",
          "type": "address"
        },
        {
          "internalType": "uint256",
          "name": "",
          "type": "uint256"
        }
      ],
      "stateMutability": "view",
      "type": "function"
    },
    {
      "inputs": [
        {
          "internalType": "string",
          "name": "",
          "type": "string"
        }
      ],
      "name": "lands",
      "outputs": [
        {
          "internalType": "uint256",
          "name": "id",
          "type": "uint256"
        },
        {
          "internalType": "string",
          "name": "surveyNumber",
          "type": "string"
        },
        {
          "internalType": "string",
          "name": "landHash",
          "type": "string"
        },
        {
          "internalType": "address",
          "name": "owner",
          "type": "address"
        },
        {
          "internalType": "uint256",
          "name": "timestamp",
          "type": "uint256"
        },
        {
          "internalType": "bool",
          "name": "isRegistered",
          "type": "bool"
        }
      ],
      "stateMutability": "view",
      "type": "function"
    },
    {
      "inputs": [
        {
          "internalType": "string",
          "name": "_surveyNumber",
          "type": "string"
        },
        {
          "internalType": "string",
          "name": "_landHash",
          "type": "string"
        }
      ],
      "name": "registerLand",
      "outputs": [],
      "stateMutability": "nonpayable",
      "type": "function"
    },
    {
      "inputs": [
        {
          "internalType": "uint256",
          "name": "",
          "type": "uint256"
        }
      ],
      "name": "surveyNumbers",
      "outputs": [
        {
          "internalType": "string",
          "name": "",
          "type": "string"
        }
      ],
      "stateMutability": "view",
      "type": "function"
    },
    {
      "inputs": [],
      "name": "totalLands",
      "outputs": [
        {
          "internalType": "uint256",
          "name": "",
          "type": "uint256"
        }
      ],
      "stateMutability": "view",
      "type": "function"
    },
    {
      "inputs": [
        {
          "internalType": "string",
          "name": "_surveyNumber",
          "type": "string"
        },
        {
          "internalType": "string",
          "name": "_newLandHash",
          "type": "string"
        }
      ],
      "name": "transferLand",
      "outputs": [],
      "stateMutability": "nonpayable",
      "type": "function"
    }
  ],
  "bytecode": "0x608060405234801561001057600080fd5b5060006002819055506112d5806100286000396000f3fe608060405234801561001057600080fd5b50600436106100625760003560e01c80631d8de0631461006757806324642681146100855780635f8ca404146100a15780636c844a7b146100d15780637a00f2ab14610105578063b1c8ad0d14610121575b600080fd5b61006f610156565b60405161007c919061096d565b60405180910390f35b61009f600480360381019061009a9190610ae2565b61015c565b005b6100bb60048036038101906100b69190610b86565b610380565b6040516100c89190610c32565b60405180910390f35b6100eb60048036038101906100e69190610c54565b610420565b6040516100fc959493929190610cde565b60405180910390f35b61011f600480360381019061011a9190610ae2565b610698565b005b61013b60048036038101906101369190610c54565b6107c5565b60405161014d96959493929190610d5a565b60405180910390f35b60025481565b60008260405161016c9190610e05565b908152602001604051809103902060050160009054906101000a900460ff16156101cb576040517f08c379a00000000000000000000000000000000000000000000000000000000081526004016101c290610e8e565b60405180910390fd5b600260008154809291906101de90610edd565b91905055506040518060c0016040528060025481526020018381526020018281526020013373ffffffffffffffffffffffffffffffffffffffff1681526020014281526020016001151581525060008360405161023b9190610e05565b90815260200160405180910390206000820151816000015560208201518160010190816102689190611131565b50604082015181600201908161027e9190611131565b5060608201518160030160006101000a81548173ffffffffffffffffffffffffffffffffffffffff021916908373ffffffffffffffffffffffffffffffffffffffff1602179055506080820151816004015560a08201518160050160006101000a81548160ff0219169083151502179055509050508160016000600254815260200190815260200160002090816103159190611131565b503373ffffffffffffffffffffffffffffffffffffffff168260405161033b9190610e05565b60405180910390207f5b87c30da9114f745ab3985a0bec130d3b34bc8fd4cde5a2981f817272c57c228342604051610374929190611203565b60405180910390a35050565b6001602052806000526040600020600091509050805461039f90610f54565b80601f01602080910402602001604051908101604052809291908181526020018280546103cb90610f54565b80156104185780601f106103ed57610100808354040283529160200191610418565b820191906000526020600020905b8154815290600101906020018083116103fb57829003601f168201915b505050505081565b60006060806000806000866040516104389190610e05565b908152602001604051809103902060050160009054906101000a900460ff16610496576040517f08c379a000000000000000000000000000000000000000000000000000000000815260040161048d9061127f565b60405180910390fd5b600080876040516104a79190610e05565b90815260200160405180910390206040518060c0016040529081600082015481526020016001820180546104da90610f54565b80601f016020809104026020016040519081016040528092919081815260200182805461050690610f54565b80156105535780601f1061052857610100808354040283529160200191610553565b820191906000526020600020905b81548152906001019060200180831161053657829003601f168201915b5050505050815260200160028201805461056c90610f54565b80601f016020809104026020016040519081016040528092919081815260200182805461059890610f54565b80156105e55780601f106105ba576101008083540402835291602001916105e5565b820191906000526020600020905b8154815290600101906020018083116105c857829003601f168201915b505050505081526020016003820160009054906101000a900473ffffffffffffffffffffffffffffffffffffffff1673ffffffffffffffffffffffffffffffffffffffff1673ffffffffffffffffffffffffffffffffffffffff168152602001600482015481526020016005820160009054906101000a900460ff161515151581525050905080600001518160200151826040015183606001518460800151955095509550955095505091939590929450565b6000826040516106a89190610e05565b908152602001604051809103902060050160009054906101000a900460ff16610706576040517f08c379a00000000000000000000000000000000000000000000000000000000081526004016106fd9061127f565b60405180910390fd5b806000836040516107179190610e05565b908152602001604051809103902060020190816107349190611131565b50426000836040516107469190610e05565b9081526020016040518091039020600401819055503373ffffffffffffffffffffffffffffffffffffffff16826040516107809190610e05565b60405180910390207fcec717b20ccb46d5a7b337a61e9d9943889fc4e3ea009d6bb5220d9a9b79b21283426040516107b9929190611203565b60405180910390a35050565b60008180516020810182018051848252602083016020850120818352809550505050505060009150905080600001549080600101805461080490610f54565b80601f016020809104026020016040519081016040528092919081815260200182805461083090610f54565b801561087d5780601f106108525761010080835404028352916020019161087d565b820191906000526020600020905b81548152906001019060200180831161086057829003601f168201915b50505050509080600201805461089290610f54565b80601f01602080910402602001604051908101604052809291908181526020018280546108be90610f54565b801561090b5780601f106108e05761010080835404028352916020019161090b565b820191906000526020600020905b8154815290600101906020018083116108ee57829003601f168201915b5050505050908060030160009054906101000a900473ffffffffffffffffffffffffffffffffffffffff16908060040154908060050160009054906101000a900460ff16905086565b6000819050919050565b61096781610954565b82525050565b6000602082019050610982600083018461095e565b92915050565b6000604051905090565b600080fd5b600080fd5b600080fd5b600080fd5b6000601f19601f8301169050919050565b7f4e487b7100000000000000000000000000000000000000000000000000000000600052604160045260246000fd5b6109ef826109a6565b810181811067ffffffffffffffff82111715610a0e57610a0d6109b7565b5b80604052505050565b6000610a21610988565b9050610a2d82826109e6565b919050565b600067ffffffffffffffff821115610a4d57610a4c6109b7565b5b610a56826109a6565b9050602081019050919050565b82818337600083830152505050565b6000610a85610a8084610a32565b610a17565b905082815260208101848484011115610aa157610aa06109a1565b5b610aac848285610a63565b509392505050565b600082601f830112610ac957610ac861099c565b5b8135610ad9848260208601610a72565b91505092915050565b60008060408385031215610af957610af8610992565b5b600083013567ffffffffffffffff811115610b1757610b16610997565b5b610b2385828601610ab4565b925050602083013567ffffffffffffffff811115610b4457610b43610997565b5b610b5085828601610ab4565b9150509250929050565b610b6381610954565b8114610b6e57600080fd5b50565b600081359050610b8081610b5a565b92915050565b600060208284031215610b9c57610b9b610992565b5b6000610baa84828501610b71565b91505092915050565b600081519050919050565b600082825260208201905092915050565b60005b83811015610bed578082015181840152602081019050610bd2565b60008484015250505050565b6000610c0482610bb3565b610c0e8185610bbe565b9350610c1e818560208601610bcf565b610c27816109a6565b840191505092915050565b60006020820190508181036000830152610c4c8184610bf9565b905092915050565b600060208284031215610c6a57610c69610992565b5b600082013567ffffffffffffffff811115610c8857610c87610997565b5b610c9484828501610ab4565b91505092915050565b600073ffffffffffffffffffffffffffffffffffffffff82169050919050565b6000610cc882610c9d565b9050919050565b610cd881610cbd565b82525050565b600060a082019050610cf3600083018861095e565b8181036020830152610d058187610bf9565b90508181036040830152610d198186610bf9565b9050610d286060830185610ccf565b610d35608083018461095e565b9695505050505050565b60008115159050919050565b610d5481610d3f565b82525050565b600060c082019050610d6f600083018961095e565b8181036020830152610d818188610bf9565b90508181036040830152610d958187610bf9565b9050610da46060830186610ccf565b610db1608083018561095e565b610dbe60a0830184610d4b565b979650505050505050565b600081905092915050565b6000610ddf82610bb3565b610de98185610dc9565b9350610df9818560208601610bcf565b80840191505092915050565b6000610e118284610dd4565b915081905092915050565b7f4c616e642077697468207468697320537572766579204e756d62657220616c7260008201527f6561647920726567697374657265640000000000000000000000000000000000602082015250565b6000610e78602f83610bbe565b9150610e8382610e1c565b604082019050919050565b60006020820190508181036000830152610ea781610e6b565b9050919050565b7f4e487b7100000000000000000000000000000000000000000000000000000000600052601160045260246000fd5b6000610ee882610954565b91507fffffffffffffffffffffffffffffffffffffffffffffffffffffffffffffffff8203610f1a57610f19610eae565b5b600182019050919050565b7f4e487b7100000000000000000000000000000000000000000000000000000000600052602260045260246000fd5b60006002820490506001821680610f6c57607f821691505b602082108103610f7f57610f7e610f25565b5b50919050565b60008190508160005260206000209050919050565b60006020601f8301049050919050565b600082821b905092915050565b600060088302610fe77fffffffffffffffffffffffffffffffffffffffffffffffffffffffffffffffff82610faa565b610ff18683610faa565b95508019841693508086168417925050509392505050565b6000819050919050565b600061102e61102961102484610954565b611009565b610954565b9050919050565b6000819050919050565b61104883611013565b61105c61105482611035565b848454610fb7565b825550505050565b600090565b611071611064565b61107c81848461103f565b505050565b5b818110156110a057611095600082611069565b600181019050611082565b5050565b601f8211156110e5576110b681610f85565b6110bf84610f9a565b810160208510156110ce578190505b6110e26110da85610f9a565b830182611081565b50505b505050565b600082821c905092915050565b6000611108600019846008026110ea565b1980831691505092915050565b600061112183836110f7565b9150826002028217905092915050565b61113a82610bb3565b67ffffffffffffffff811115611153576111526109b7565b5b61115d8254610f54565b6111688282856110a4565b600060209050601f83116001811461119b5760008415611189578287015190505b6111938582611115565b8655506111fb565b601f1984166111a986610f85565b60005b828110156111d1578489015182556001820191506020850194506020810190506111ac565b868310156111ee57848901516111ea601f8916826110f7565b8355505b6001600288020188555050505b505050505050565b6000604082019050818103600083015261121d8185610bf9565b905061122c602083018461095e565b9392505050565b7f4c616e64206e6f7420666f756e64000000000000000000000000000000000000600082015250565b6000611269600e83610bbe565b915061127482611233565b602082019050919050565b600060208201905081810360008301526112988161125c565b905091905056fea2646970667358221220c6ec8402553371b38ede72fed1114641e2421ee6a12d08146d2198dcba7ad32b64736f6c63430008130033",
  "linkReferences": {},
  "deployedLinkReferences": {}
}